{
  "contractName": "Airdrop",
  "abi": [
    {
      "constant": false,
      "inputs": [],
      "name": "claimOwnership",
      "outputs": [],
      "payable": false,
      "stateMutability": "nonpayable",
      "type": "function"
    },
    {
      "constant": true,
      "inputs": [],
      "name": "version",
      "outputs": [
        {
          "name": "",
          "type": "string"
        }
      ],
      "payable": false,
      "stateMutability": "view",
      "type": "function"
    },
    {
      "constant": true,
      "inputs": [],
      "name": "implementation",
      "outputs": [
        {
          "name": "",
          "type": "address"
        }
      ],
      "payable": false,
      "stateMutability": "view",
      "type": "function"
    },
    {
      "constant": true,
      "inputs": [],
      "name": "upgradeabilityOwner",
      "outputs": [
        {
          "name": "",
          "type": "address"
        }
      ],
      "payable": false,
      "stateMutability": "view",
      "type": "function"
    },
    {
      "constant": true,
      "inputs": [],
      "name": "owner",
      "outputs": [
        {
          "name": "",
          "type": "address"
        }
      ],
      "payable": false,
      "stateMutability": "view",
      "type": "function"
    },
    {
      "constant": true,
      "inputs": [],
      "name": "pendingOwner",
      "outputs": [
        {
          "name": "",
          "type": "address"
        }
      ],
      "payable": false,
      "stateMutability": "view",
      "type": "function"
    },
    {
      "constant": false,
      "inputs": [
        {
          "name": "newOwner",
          "type": "address"
        }
      ],
      "name": "transferOwnership",
      "outputs": [],
      "payable": false,
      "stateMutability": "nonpayable",
      "type": "function"
    },
    {
      "payable": true,
      "stateMutability": "payable",
      "type": "fallback"
    },
    {
      "anonymous": false,
      "inputs": [
        {
          "indexed": false,
          "name": "total",
          "type": "uint256"
        },
        {
          "indexed": false,
          "name": "tokenAddress",
          "type": "address"
        }
      ],
      "name": "Multisended",
      "type": "event"
    },
    {
      "anonymous": false,
      "inputs": [
        {
          "indexed": false,
          "name": "token",
          "type": "address"
        },
        {
          "indexed": false,
          "name": "owner",
          "type": "address"
        },
        {
          "indexed": false,
          "name": "balance",
          "type": "uint256"
        }
      ],
      "name": "ClaimedTokens",
      "type": "event"
    },
    {
      "anonymous": false,
      "inputs": [
        {
          "indexed": false,
          "name": "previousOwner",
          "type": "address"
        },
        {
          "indexed": false,
          "name": "newOwner",
          "type": "address"
        }
      ],
      "name": "OwnershipTransferred",
      "type": "event"
    },
    {
      "constant": false,
      "inputs": [
        {
          "name": "_owner",
          "type": "address"
        }
      ],
      "name": "initialize",
      "outputs": [],
      "payable": false,
      "stateMutability": "nonpayable",
      "type": "function"
    },
    {
      "constant": true,
      "inputs": [],
      "name": "initialized",
      "outputs": [
        {
          "name": "",
          "type": "bool"
        }
      ],
      "payable": false,
      "stateMutability": "view",
      "type": "function"
    },
    {
      "constant": true,
      "inputs": [
        {
          "name": "customer",
          "type": "address"
        }
      ],
      "name": "txCount",
      "outputs": [
        {
          "name": "",
          "type": "uint256"
        }
      ],
      "payable": false,
      "stateMutability": "view",
      "type": "function"
    },
    {
      "constant": true,
      "inputs": [],
      "name": "arrayLimit",
      "outputs": [
        {
          "name": "",
          "type": "uint256"
        }
      ],
      "payable": false,
      "stateMutability": "view",
      "type": "function"
    },
    {
      "constant": false,
      "inputs": [
        {
          "name": "_newLimit",
          "type": "uint256"
        }
      ],
      "name": "setArrayLimit",
      "outputs": [],
      "payable": false,
      "stateMutability": "nonpayable",
      "type": "function"
    },
    {
      "constant": true,
      "inputs": [],
      "name": "discountStep",
      "outputs": [
        {
          "name": "",
          "type": "uint256"
        }
      ],
      "payable": false,
      "stateMutability": "view",
      "type": "function"
    },
    {
      "constant": false,
      "inputs": [
        {
          "name": "_newStep",
          "type": "uint256"
        }
      ],
      "name": "setDiscountStep",
      "outputs": [],
      "payable": false,
      "stateMutability": "nonpayable",
      "type": "function"
    },
    {
      "constant": true,
      "inputs": [],
      "name": "fee",
      "outputs": [
        {
          "name": "",
          "type": "uint256"
        }
      ],
      "payable": false,
      "stateMutability": "view",
      "type": "function"
    },
    {
      "constant": true,
      "inputs": [
        {
          "name": "_customer",
          "type": "address"
        }
      ],
      "name": "currentFee",
      "outputs": [
        {
          "name": "",
          "type": "uint256"
        }
      ],
      "payable": false,
      "stateMutability": "view",
      "type": "function"
    },
    {
      "constant": false,
      "inputs": [
        {
          "name": "_customer",
          "type": "address"
        },
        {
          "name": "_flag",
          "type": "bool"
        }
      ],
      "name": "setAgent",
      "outputs": [],
      "payable": false,
      "stateMutability": "nonpayable",
      "type": "function"
    },
    {
      "constant": true,
      "inputs": [
        {
          "name": "_customer",
          "type": "address"
        }
      ],
      "name": "getAgent",
      "outputs": [
        {
          "name": "",
          "type": "bool"
        }
      ],
      "payable": false,
      "stateMutability": "view",
      "type": "function"
    },
    {
      "constant": false,
      "inputs": [
        {
          "name": "_newStep",
          "type": "uint256"
        }
      ],
      "name": "setFee",
      "outputs": [],
      "payable": false,
      "stateMutability": "nonpayable",
      "type": "function"
    },
    {
      "constant": true,
      "inputs": [
        {
          "name": "_customer",
          "type": "address"
        }
      ],
      "name": "discountRate",
      "outputs": [
        {
          "name": "",
          "type": "uint256"
        }
      ],
      "payable": false,
      "stateMutability": "view",
      "type": "function"
    },
    {
      "constant": false,
      "inputs": [
        {
          "name": "token",
          "type": "address"
        },
        {
          "name": "_contributors",
          "type": "address[]"
        },
        {
          "name": "amount",
          "type": "uint256"
        }
      ],
      "name": "airdrop",
      "outputs": [],
      "payable": true,
      "stateMutability": "payable",
      "type": "function"
    },
    {
      "constant": false,
      "inputs": [
        {
          "name": "token",
          "type": "address"
        },
        {
          "name": "_contributors",
          "type": "address[]"
        },
        {
          "name": "_balances",
          "type": "uint256[]"
        }
      ],
      "name": "batchTransfer",
      "outputs": [],
      "payable": true,
      "stateMutability": "payable",
      "type": "function"
    },
    {
      "constant": false,
      "inputs": [
        {
          "name": "token",
          "type": "address"
        },
        {
          "name": "_contributors",
          "type": "address[]"
        },
        {
          "name": "_balances",
          "type": "uint256[]"
        }
      ],
      "name": "batchTransferFrom",
      "outputs": [],
      "payable": true,
      "stateMutability": "payable",
      "type": "function"
    },
    {
      "constant": false,
      "inputs": [
        {
          "name": "_contributors",
          "type": "address[]"
        },
        {
          "name": "_balances",
          "type": "uint256[]"
        }
      ],
      "name": "multisendEther",
      "outputs": [],
      "payable": true,
      "stateMutability": "payable",
      "type": "function"
    },
    {
      "constant": false,
      "inputs": [
        {
          "name": "_token",
          "type": "address"
        }
      ],
      "name": "claimTokens",
      "outputs": [],
      "payable": false,
      "stateMutability": "nonpayable",
      "type": "function"
    }
  ],
  "bytecode": "0x608060405234801561001057600080fd5b50611787806100206000396000f30060806040526004361061012f5763ffffffff60e060020a6000350416631239ec8c8114610131578063158ef93e146101c05780632f781393146101e95780634885b254146102015780634e71e0c81461029057806354fd4d50146102a5578063591552da1461032f5780635c60da1b1461036257806369fe0e2d146103935780636fde8202146103ab5780638da5cb5b146103c057806397d8c676146103d5578063a1ac727f146103fb578063ab883d2814610453578063b4ae641c146104d4578063c1258f69146104e9578063c4d66de81461050a578063ddca3f431461052b578063df8de3e714610540578063e30c397814610561578063e4e1f29b14610576578063ee8a0a301461058b578063eff8e748146105a3578063f2fde38b146105c4578063fb3551ff146105e5575b005b60408051602060046024803582810135848102808701860190975280865261012f968435600160a060020a031696369660449591949091019291829185019084908082843750506040805187358901803560208181028481018201909552818452989b9a9989019892975090820195509350839250850190849080828437509497506106069650505050505050565b3480156101cc57600080fd5b506101d56107e9565b604080519115158252519081900360200190f35b3480156101f557600080fd5b5061012f60043561082d565b60408051602060046024803582810135848102808701860190975280865261012f968435600160a060020a031696369660449591949091019291829185019084908082843750506040805187358901803560208181028481018201909552818452989b9a9989019892975090820195509350839250850190849080828437509497506108a09650505050505050565b34801561029c57600080fd5b5061012f610a55565b3480156102b157600080fd5b506102ba610b93565b6040805160208082528351818301528351919283929083019185019080838360005b838110156102f45781810151838201526020016102dc565b50505050905090810190601f1680156103215780820380516001836020036101000a031916815260200191505b509250505060405180910390f35b34801561033b57600080fd5b50610350600160a060020a0360043516610c28565b60408051918252519081900360200190f35b34801561036e57600080fd5b50610377610c71565b60408051600160a060020a039092168252519081900360200190f35b34801561039f57600080fd5b5061012f600435610c80565b3480156103b757600080fd5b50610377610cf5565b3480156103cc57600080fd5b50610377610d04565b3480156103e157600080fd5b5061012f600160a060020a03600435166024351515610d50565b60408051602060046024803582810135848102808701860190975280865261012f968435600160a060020a0316963696604495919490910192918291850190849080828437509497505093359450610dc69350505050565b6040805160206004803580820135838102808601850190965280855261012f95369593946024949385019291829185019084908082843750506040805187358901803560208181028481018201909552818452989b9a998901989297509082019550935083925085019084908082843750949750610f049650505050505050565b3480156104e057600080fd5b50610350611065565b3480156104f557600080fd5b50610350600160a060020a03600435166110a6565b34801561051657600080fd5b5061012f600160a060020a0360043516611107565b34801561053757600080fd5b50610350611196565b34801561054c57600080fd5b5061012f600160a060020a03600435166111d9565b34801561056d57600080fd5b506103776113d7565b34801561058257600080fd5b50610350611421565b34801561059757600080fd5b5061012f600435611462565b3480156105af57600080fd5b50610350600160a060020a03600435166114d5565b3480156105d057600080fd5b5061012f600160a060020a0360043516611502565b3480156105f157600080fd5b506101d5600160a060020a03600435166115a9565b604080516c01000000000000000000000000600160a060020a033316028152815190819003601401902060009081526007602052908120548190819060ff161515600114156106545761067a565b600061065f33610c28565b111561067a5761066e33610c28565b34101561067a57600080fd5b5060009150849050815b84518160ff16101561077b5781600160a060020a031663a9059cbb868360ff168151811015156106b057fe5b90602001906020020151868460ff168151811015156106cb57fe5b906020019060200201516040518363ffffffff1660e060020a0281526004018083600160a060020a0316600160a060020a0316815260200182815260200192505050602060405180830381600087803b15801561072757600080fd5b505af115801561073b573d6000803e3d6000fd5b505050506040513d602081101561075157600080fd5b50508351849060ff831690811061076457fe5b602090810290910101519290920191600101610684565b61079e33610799600161078d336110a6565b9063ffffffff6115e716565b611601565b60408051848152600160a060020a038816602082015281517f04afd2ce457d973046bd54f5d7d36368546da08b88be1bca8ae50e32b451da17929181900390910190a1505050505050565b604080517f72735f6d756c746973656e6465725f696e697469616c697a65640000000000008152815190819003601a01902060009081526007602052205460ff1690565b610835610d04565b600160a060020a031633600160a060020a031614151561085457600080fd5b80151561086057600080fd5b604080517f646973636f756e745374657000000000000000000000000000000000000000008152815190819003600c019020600090815260036020522055565b604080516c01000000000000000000000000600160a060020a033316028152815190819003601401902060009081526007602052908120548190819060ff161515600114156108ee57610914565b60006108f933610c28565b11156109145761090833610c28565b34101561091457600080fd5b61beef600160a060020a0387161415610936576109318585610f04565b610a4d565b60009250610942611065565b8551111561094f57600080fd5b5084905060005b84518160ff16101561077b5781600160a060020a03166323b872dd33878460ff1681518110151561098357fe5b90602001906020020151878560ff1681518110151561099e57fe5b60209081029091018101516040805160e060020a63ffffffff8816028152600160a060020a03958616600482015293909416602484015260448301529151606480830193928290030181600087803b1580156109f957600080fd5b505af1158015610a0d573d6000803e3d6000fd5b505050506040513d6020811015610a2357600080fd5b50508351849060ff8316908110610a3657fe5b602090810290910101519290920191600101610956565b505050505050565b610a5d6113d7565b600160a060020a031633600160a060020a0316141515610a7c57600080fd5b7f8be0079c531659141344cd1fd0a4f28419497f9722a3daafe3b4186f6b6457e0610aa5610d04565b610aad6113d7565b60408051600160a060020a03938416815291909216602082015281519081900390910190a1604080517f70656e64696e674f776e657200000000000000000000000000000000000000008082528251600c9281900383018120600090815260056020818152868320547f6f776e657200000000000000000000000000000000000000000000000000000085528751948590038301852084528282528784208054600160a060020a0390921673ffffffffffffffffffffffffffffffffffffffff199283161790559484528651938490039095019092208152925291902080549091169055565b60018054604080516020601f60026000196101008789161502019095169490940493840181900481028201810190925282815260609390929091830182828015610c1e5780601f10610bf357610100808354040283529160200191610c1e565b820191906000526020600020905b815481529060010190602001808311610c0157829003601f168201915b5050505050905090565b6000610c33336114d5565b610c3b611196565b1115610c6857610c61610c4d836114d5565b610c55611196565b9063ffffffff61166716565b9050610c6c565b5060005b919050565b600254600160a060020a031690565b610c88610d04565b600160a060020a031633600160a060020a0316141515610ca757600080fd5b801515610cb357600080fd5b604080517f6665650000000000000000000000000000000000000000000000000000000000815281516003918190038201902060009081526020919091522055565b600054600160a060020a031690565b604080517f6f776e6572000000000000000000000000000000000000000000000000000000815281516005918190038201902060009081526020919091522054600160a060020a031690565b610d58610d04565b600160a060020a031633600160a060020a0316141515610d7757600080fd5b60408051600160a060020a03939093166c010000000000000000000000000283528051601493819003939093019092206000908152600760205291909120805460ff1916911515919091179055565b604080516c01000000000000000000000000600160a060020a033316028152815190819003601401902060009081526007602052908120548190819060ff16151560011415610e1457610e3a565b6000610e1f33610c28565b1115610e3a57610e2e33610c28565b341015610e3a57600080fd5b5060009150849050815b84518160ff16101561077b5781600160a060020a03166323b872dd33878460ff16815181101515610e7157fe5b60209081029091018101516040805160e060020a63ffffffff8716028152600160a060020a03948516600482015293909116602484015260448301899052516064808401938290030181600087803b158015610ecc57600080fd5b505af1158015610ee0573d6000803e3d6000fd5b505050506040513d6020811015610ef657600080fd5b505091830191600101610e44565b34600080610f1133610c28565b915081831015610f2057600080fd5b610f28611065565b85511115610f3557600080fd5b610f45838363ffffffff61166716565b9250600090505b8451811015611010578381815181101515610f6357fe5b60209081029091010151831015610f7957600080fd5b610fa18482815181101515610f8a57fe5b60209081029091010151849063ffffffff61166716565b92508481815181101515610fb157fe5b90602001906020020151600160a060020a03166108fc8583815181101515610fd557fe5b602090810290910101516040518115909202916000818181858888f19350505050158015611007573d6000803e3d6000fd5b50600101610f4c565b61102233610799600161078d336110a6565b6040805134815261beef602082015281517f04afd2ce457d973046bd54f5d7d36368546da08b88be1bca8ae50e32b451da17929181900390910190a15050505050565b604080517f61727261794c696d6974000000000000000000000000000000000000000000008152815190819003600a01902060009081526003602052205490565b604080517f7478436f756e740000000000000000000000000000000000000000000000000081526c01000000000000000000000000600160a060020a038416026007820152815190819003601b019020600090815260036020522054919050565b61110f6107e9565b1561111957600080fd5b61112281611679565b61112c60c8611462565b61113b652d79883d200061082d565b61114b66b1a2bc2ec50000610c80565b50604080517f72735f6d756c746973656e6465725f696e697469616c697a65640000000000008152815190819003601a0190206000908152600760205220805460ff19166001179055565b604080517f666565000000000000000000000000000000000000000000000000000000000081528151600391819003820190206000908152602091909152205490565b6000806111e4610d04565b600160a060020a031633600160a060020a031614151561120357600080fd5b600160a060020a03831615156112595761121b610d04565b604051600160a060020a039182169130163180156108fc02916000818181858888f19350505050158015611253573d6000803e3d6000fd5b506113d2565b82915081600160a060020a03166370a08231306040518263ffffffff1660e060020a0281526004018082600160a060020a0316600160a060020a03168152602001915050602060405180830381600087803b1580156112b757600080fd5b505af11580156112cb573d6000803e3d6000fd5b505050506040513d60208110156112e157600080fd5b50519050600160a060020a03821663a9059cbb6112fc610d04565b836040518363ffffffff1660e060020a0281526004018083600160a060020a0316600160a060020a0316815260200182815260200192505050602060405180830381600087803b15801561134f57600080fd5b505af1158015611363573d6000803e3d6000fd5b505050506040513d602081101561137957600080fd5b507ff931edb47c50b4b4104c187b5814a9aef5f709e17e2ecf9617e860cacade929c9050836113a6610d04565b60408051600160a060020a03938416815291909216602082015280820184905290519081900360600190a15b505050565b604080517f70656e64696e674f776e657200000000000000000000000000000000000000008152815190819003600c019020600090815260056020522054600160a060020a031690565b604080517f646973636f756e745374657000000000000000000000000000000000000000008152815190819003600c01902060009081526003602052205490565b61146a610d04565b600160a060020a031633600160a060020a031614151561148957600080fd5b80151561149557600080fd5b604080517f61727261794c696d6974000000000000000000000000000000000000000000008152815190819003600a019020600090815260036020522055565b6000806114e1836110a6565b90506114fb6114ee611421565b829063ffffffff61173016565b9392505050565b61150a610d04565b600160a060020a031633600160a060020a031614151561152957600080fd5b600160a060020a038116151561153e57600080fd5b604080517f70656e64696e674f776e657200000000000000000000000000000000000000008152815190819003600c01902060009081526005602052208054600160a060020a0390921673ffffffffffffffffffffffffffffffffffffffff19909216919091179055565b604080516c01000000000000000000000000600160a060020a038416028152815190819003601401902060009081526007602052205460ff16919050565b6000828201838110156115f657fe5b8091505b5092915050565b604080517f7478436f756e740000000000000000000000000000000000000000000000000081526c01000000000000000000000000600160a060020a03909416939093026007840152805192839003601b01909220600090815260036020529190912055565b60008282111561167357fe5b50900390565b7f8be0079c531659141344cd1fd0a4f28419497f9722a3daafe3b4186f6b6457e06116a2610d04565b60408051600160a060020a03928316815291841660208301528051918290030190a1604080517f6f776e65720000000000000000000000000000000000000000000000000000008152815160059181900382019020600090815260209190915220805473ffffffffffffffffffffffffffffffffffffffff1916600160a060020a0392909216919091179055565b60008083151561174357600091506115fa565b5082820282848281151561175357fe5b04146115f657fe00a165627a7a7230582057f38e1cc641342c7788b51361f900afe03081a71bedd81eb0bbb8876f3666980029",
  "source": "\npragma solidity 0.4.23;\n\nimport \"../OwnedUpgradeabilityStorage.sol\";\nimport \"./Claimable.sol\";\nimport \"../SafeMath.sol\";\n\n\ncontract ERC20Basic {\n    function totalSupply() public view returns (uint256);\n    function balanceOf(address who) public view returns (uint256);\n    function transfer(address to, uint256 value) public returns (bool);\n    event Transfer(address indexed from, address indexed to, uint256 value);\n}\n\n\ncontract ERC20 is ERC20Basic {\n    function allowance(address owner, address spender) public view returns (uint256);\n    function transferFrom(address from, address to, uint256 value) public returns (bool);\n    function approve(address spender, uint256 value) public returns (bool);\n    event Approval(address indexed owner, address indexed spender, uint256 value);\n}\n\n\ncontract Airdrop is OwnedUpgradeabilityStorage, Claimable {\n    using SafeMath for uint256;\n\n    event Multisended(uint256 total, address tokenAddress);\n    event ClaimedTokens(address token, address owner, uint256 balance);\n\n    modifier hasFee() {\n\n        if(boolStorage[keccak256(msg.sender)]==true){\n\n        }else{\n            if (currentFee(msg.sender) > 0) {\n                require(msg.value >= currentFee(msg.sender));\n            }\n        }\n        _;\n    }\n\n    function() public payable {}\n\n    function initialize(address _owner) public {\n        require(!initialized());\n        setOwner(_owner);\n        setArrayLimit(200);\n        setDiscountStep(0.00005 ether);\n        setFee(0.05 ether);\n        boolStorage[keccak256(\"rs_multisender_initialized\")] = true;\n    }\n\n    function initialized() public view returns (bool) {\n        return boolStorage[keccak256(\"rs_multisender_initialized\")];\n    }\n \n    function txCount(address customer) public view returns(uint256) {\n        return uintStorage[keccak256(\"txCount\", customer)];\n    }\n\n    function arrayLimit() public view returns(uint256) {\n        return uintStorage[keccak256(\"arrayLimit\")];\n    }\n\n    function setArrayLimit(uint256 _newLimit) public onlyOwner {\n        require(_newLimit != 0);\n        uintStorage[keccak256(\"arrayLimit\")] = _newLimit;\n    }\n\n    function discountStep() public view returns(uint256) {\n        return uintStorage[keccak256(\"discountStep\")];\n    }\n\n    function setDiscountStep(uint256 _newStep) public onlyOwner {\n        require(_newStep != 0);\n        uintStorage[keccak256(\"discountStep\")] = _newStep;\n    }\n\n    function fee() public view returns(uint256) {\n        return uintStorage[keccak256(\"fee\")];\n    }\n\n    function currentFee(address _customer) public view returns(uint256) {\n        if (fee() > discountRate(msg.sender)) {\n            return fee().sub(discountRate(_customer));\n        } else {\n            return 0;\n        }\n    }\n\n    function setAgent(address _customer,bool _flag) public onlyOwner {\n\n        boolStorage[keccak256(_customer)] = _flag;\n    }\n\n    function getAgent(address _customer) public view returns (bool) {\n\n        return boolStorage[keccak256(_customer)];\n    }\n\n    function setFee(uint256 _newStep) public onlyOwner {\n        require(_newStep != 0);\n        uintStorage[keccak256(\"fee\")] = _newStep;\n    }\n\n    function discountRate(address _customer) public view returns(uint256) {\n        uint256 count = txCount(_customer);\n        return count.mul(discountStep());\n    }\n\n\n\n    function airdrop(address token, address[] _contributors, uint256 amount) public hasFee payable {\n        uint256 total = 0;\n\n        ERC20 erc20token = ERC20(token);\n        uint8 i = 0;\n        for (i; i < _contributors.length; i++) {\n            erc20token.transferFrom(msg.sender, _contributors[i], amount);\n            total += amount;\n        }\n        setTxCount(msg.sender, txCount(msg.sender).add(1));\n        emit Multisended(total, token);\n    }\n\n    function batchTransfer(address token, address[] _contributors, uint256[] _balances) public hasFee payable {\n        uint256 total = 0;\n\n        ERC20 erc20token = ERC20(token);\n        uint8 i = 0;\n        for (i; i < _contributors.length; i++) {\n            erc20token.transfer( _contributors[i], _balances[i]);\n            total += _balances[i];\n        }\n        setTxCount(msg.sender, txCount(msg.sender).add(1));\n        emit Multisended(total, token);\n    }\n\n    function batchTransferFrom(address token, address[] _contributors, uint256[] _balances) public hasFee payable {\n        if (token == 0x000000000000000000000000000000000000bEEF){\n            multisendEther(_contributors, _balances);\n        } else {\n            uint256 total = 0;\n            require(_contributors.length <= arrayLimit());\n            ERC20 erc20token = ERC20(token);\n            uint8 i = 0;\n            for (i; i < _contributors.length; i++) {\n                erc20token.transferFrom(msg.sender, _contributors[i], _balances[i]);\n                total += _balances[i];\n            }\n            setTxCount(msg.sender, txCount(msg.sender).add(1));\n            emit Multisended(total, token);\n        }\n    }\n\n\n\n\n\n    function multisendEther(address[] _contributors, uint256[] _balances) public payable {\n        uint256 total = msg.value;\n        uint256 msgfee = currentFee(msg.sender);\n        require(total >= msgfee);\n        require(_contributors.length <= arrayLimit());\n        total = total.sub(msgfee);\n        uint256 i = 0;\n        for (i; i < _contributors.length; i++) {\n            require(total >= _balances[i]);\n            total = total.sub(_balances[i]);\n            _contributors[i].transfer(_balances[i]);\n        }\n        setTxCount(msg.sender, txCount(msg.sender).add(1));\n        emit Multisended(msg.value, 0x000000000000000000000000000000000000bEEF);\n    }\n\n    function claimTokens(address _token) public onlyOwner {\n        if (_token == address(0)) {\n            owner().transfer(address(this).balance);\n            return;\n        }\n        ERC20 erc20token = ERC20(_token);\n        uint256 balance = erc20token.balanceOf(this);\n        erc20token.transfer(owner(), balance);\n        emit ClaimedTokens(_token, owner(), balance);\n\n    }\n    \n    function setTxCount(address customer, uint256 _txCount) private {\n        uintStorage[keccak256(\"txCount\", customer)] = _txCount;\n    }\n\n}\n",
  "sourcePath": "/product/PeloAirdrop/contracts/multisender/Airdrop.sol",
  "compiler": {
    "name": "solc",
    "version": "0.4.23+commit.124ca40d.Emscripten.clang"
  },
  "schemaVersion": "2.0.0",
  "updatedAt": "2018-07-07T04:33:42.924Z"
}