{
  "contractName": "Claimable",
  "abi": [
    {
      "constant": true,
      "inputs": [],
      "name": "owner",
      "outputs": [
        {
          "name": "",
          "type": "address"
        }
      ],
      "payable": false,
      "stateMutability": "view",
      "type": "function"
    },
    {
      "anonymous": false,
      "inputs": [
        {
          "indexed": false,
          "name": "previousOwner",
          "type": "address"
        },
        {
          "indexed": false,
          "name": "newOwner",
          "type": "address"
        }
      ],
      "name": "OwnershipTransferred",
      "type": "event"
    },
    {
      "constant": true,
      "inputs": [],
      "name": "pendingOwner",
      "outputs": [
        {
          "name": "",
          "type": "address"
        }
      ],
      "payable": false,
      "stateMutability": "view",
      "type": "function"
    },
    {
      "constant": false,
      "inputs": [
        {
          "name": "newOwner",
          "type": "address"
        }
      ],
      "name": "transferOwnership",
      "outputs": [],
      "payable": false,
      "stateMutability": "nonpayable",
      "type": "function"
    },
    {
      "constant": false,
      "inputs": [],
      "name": "claimOwnership",
      "outputs": [],
      "payable": false,
      "stateMutability": "nonpayable",
      "type": "function"
    }
  ],
  "bytecode": "0x608060405234801561001057600080fd5b5061038d806100206000396000f3006080604052600436106100615763ffffffff7c01000000000000000000000000000000000000000000000000000000006000350416634e71e0c881146100665780638da5cb5b1461007d578063e30c3978146100ae578063f2fde38b146100c3575b600080fd5b34801561007257600080fd5b5061007b6100e4565b005b34801561008957600080fd5b50610092610226565b60408051600160a060020a039092168252519081900360200190f35b3480156100ba57600080fd5b50610092610270565b3480156100cf57600080fd5b5061007b600160a060020a03600435166102ba565b6100ec610270565b600160a060020a031633600160a060020a031614151561010b57600080fd5b7f8be0079c531659141344cd1fd0a4f28419497f9722a3daafe3b4186f6b6457e0610134610226565b61013c610270565b60408051600160a060020a03938416815291909216602082015281519081900390910190a1604080517f70656e64696e674f776e657200000000000000000000000000000000000000008082528251600c9281900383018120600090815260026020818152868320547f6f776e65720000000000000000000000000000000000000000000000000000008552875160059581900395909501852084528282528784208054600160a060020a0390921673ffffffffffffffffffffffffffffffffffffffff199283161790559484528651938490039095019092208152925291902080549091169055565b604080517f6f776e657200000000000000000000000000000000000000000000000000000081528151908190036005019020600090815260026020522054600160a060020a031690565b604080517f70656e64696e674f776e657200000000000000000000000000000000000000008152815190819003600c019020600090815260026020522054600160a060020a031690565b6102c2610226565b600160a060020a031633600160a060020a03161415156102e157600080fd5b600160a060020a03811615156102f657600080fd5b604080517f70656e64696e674f776e657200000000000000000000000000000000000000008152815190819003600c01902060009081526002602052208054600160a060020a0390921673ffffffffffffffffffffffffffffffffffffffff199092169190911790555600a165627a7a72305820b0ca59c1ab3541f4065b1536b5b9688379e3a4a8dffc4e452fd8832cef1240d70029",
  "source": "\npragma solidity 0.4.23;\n\nimport \"./Ownable.sol\";\nimport \"../EternalStorage.sol\";\n\n\n/**\n * @title Claimable\n * @dev Extension for the Ownable contract, where the ownership needs to be claimed.\n * This allows the new owner to accept the transfer.\n */\ncontract Claimable is EternalStorage, Ownable {\n    function pendingOwner() public view returns (address) {\n        return addressStorage[keccak256(\"pendingOwner\")];\n    }\n\n    /**\n    * @dev Modifier throws if called by any account other than the pendingOwner.\n    */\n    modifier onlyPendingOwner() {\n        require(msg.sender == pendingOwner());\n        _;\n    }\n\n    /**\n    * @dev Allows the current owner to set the pendingOwner address.\n    * @param newOwner The address to transfer ownership to.\n    */\n    function transferOwnership(address newOwner) public onlyOwner {\n        require(newOwner != address(0));\n        addressStorage[keccak256(\"pendingOwner\")] = newOwner;\n    }\n\n    /**\n    * @dev Allows the pendingOwner address to finalize the transfer.\n    */\n    function claimOwnership() public onlyPendingOwner {\n        emit OwnershipTransferred(owner(), pendingOwner());\n        addressStorage[keccak256(\"owner\")] = addressStorage[keccak256(\"pendingOwner\")];\n        addressStorage[keccak256(\"pendingOwner\")] = address(0);\n    }\n}\n",
  "sourcePath": "/product/PeloAirdrop/contracts/multisender/Claimable.sol",
  "compiler": {
    "name": "solc",
    "version": "0.4.23+commit.124ca40d.Emscripten.clang"
  },
  "schemaVersion": "2.0.0",
  "updatedAt": "2018-07-07T04:33:42.930Z"
}