{
  "contractName": "LrcAirdrop",
  "abi": [
    {
      "constant": true,
      "inputs": [],
      "name": "owner",
      "outputs": [
        {
          "name": "",
          "type": "address"
        }
      ],
      "payable": false,
      "stateMutability": "view",
      "type": "function"
    },
    {
      "constant": false,
      "inputs": [
        {
          "name": "newOwner",
          "type": "address"
        }
      ],
      "name": "transferOwnership",
      "outputs": [],
      "payable": false,
      "stateMutability": "nonpayable",
      "type": "function"
    },
    {
      "constant": true,
      "inputs": [],
      "name": "token",
      "outputs": [
        {
          "name": "",
          "type": "address"
        }
      ],
      "payable": false,
      "stateMutability": "view",
      "type": "function"
    },
    {
      "anonymous": false,
      "inputs": [
        {
          "indexed": true,
          "name": "previousOwner",
          "type": "address"
        },
        {
          "indexed": true,
          "name": "newOwner",
          "type": "address"
        }
      ],
      "name": "OwnershipTransferred",
      "type": "event"
    },
    {
      "constant": false,
      "inputs": [
        {
          "name": "_token",
          "type": "address"
        },
        {
          "name": "_recipients",
          "type": "address[]"
        },
        {
          "name": "_amounts",
          "type": "uint256[]"
        }
      ],
      "name": "airdrop",
      "outputs": [],
      "payable": false,
      "stateMutability": "nonpayable",
      "type": "function"
    }
  ],
  "bytecode": "0x608060405260008054600160a060020a033316600160a060020a0319909116179055610393806100306000396000f3006080604052600436106100615763ffffffff7c0100000000000000000000000000000000000000000000000000000000600035041663025ff12f81146100665780638da5cb5b14610104578063f2fde38b14610135578063fc0c546a14610156575b600080fd5b34801561007257600080fd5b50604080516020600460248035828101358481028087018601909752808652610102968435600160a060020a031696369660449591949091019291829185019084908082843750506040805187358901803560208181028481018201909552818452989b9a99890198929750908201955093508392508501908490808284375094975061016b9650505050505050565b005b34801561011057600080fd5b506101196102b1565b60408051600160a060020a039092168252519081900360200190f35b34801561014157600080fd5b50610102600160a060020a03600435166102c0565b34801561016257600080fd5b50610119610358565b6000805433600160a060020a0390811691161461018757600080fd5b506001805473ffffffffffffffffffffffffffffffffffffffff1916600160a060020a03851617905560005b82518110156102ab576001548351600160a060020a039091169063a9059cbb908590849081106101df57fe5b9060200190602002015184848151811015156101f757fe5b906020019060200201516040518363ffffffff167c01000000000000000000000000000000000000000000000000000000000281526004018083600160a060020a0316600160a060020a0316815260200182815260200192505050602060405180830381600087803b15801561026c57600080fd5b505af1158015610280573d6000803e3d6000fd5b505050506040513d602081101561029657600080fd5b505115156102a357600080fd5b6001016101b3565b50505050565b600054600160a060020a031681565b60005433600160a060020a039081169116146102db57600080fd5b600160a060020a03811615156102f057600080fd5b60008054604051600160a060020a03808516939216917f8be0079c531659141344cd1fd0a4f28419497f9722a3daafe3b4186f6b6457e091a36000805473ffffffffffffffffffffffffffffffffffffffff1916600160a060020a0392909216919091179055565b600154600160a060020a0316815600a165627a7a72305820b811cb5577b126e5ddc3a1a800ddda0769a9a8e944b0f38b3b9a706efbc14ba10029",
  "source": "pragma solidity ^0.4.23;\n\n\n/**\n * @title Ownable\n * @dev The Ownable contract has an owner address, and provides basic authorization control\n * functions, this simplifies the implementation of \"user permissions\".\n */\ncontract Ownable {\n\taddress public owner;\n\n\n\tevent OwnershipTransferred(address indexed previousOwner, address indexed newOwner);\n\n\n\t/**\n\t * @dev The Ownable constructor sets the original `owner` of the contract to the sender\n\t * account.\n\t */\n\tfunction Ownable() public {\n\t\towner = msg.sender;\n\t}\n\n\t/**\n\t * @dev Throws if called by any account other than the owner.\n\t */\n\tmodifier onlyOwner() {\n\t\trequire(msg.sender == owner);\n\t\t_;\n\t}\n\n\t/**\n\t * @dev Allows the current owner to transfer control of the contract to a newOwner.\n\t * @param newOwner The address to transfer ownership to.\n\t */\n\tfunction transferOwnership(address newOwner) public onlyOwner {\n\t\trequire(newOwner != address(0));\n\t\temit OwnershipTransferred(owner, newOwner);\n\t\towner = newOwner;\n\t}\n\n}\n\n/**\n * @title SafeMath\n * @dev Math operations with safety checks that throw on error\n */\nlibrary SafeMath {\n\n\t/**\n\t* @dev Multiplies two numbers, throws on overflow.\n\t*/\n\tfunction mul(uint256 a, uint256 b) internal pure returns (uint256) {\n\t\tif (a == 0) {\n\t\t\treturn 0;\n\t\t}\n\t\tuint256 c = a * b;\n\t\tassert(c / a == b);\n\t\treturn c;\n\t}\n\n\t/**\n\t* @dev Integer division of two numbers, truncating the quotient.\n\t*/\n\tfunction div(uint256 a, uint256 b) internal pure returns (uint256) {\n\t\t// assert(b > 0); // Solidity automatically throws when dividing by 0\n\t\t// uint256 c = a / b;\n\t\t// assert(a == b * c + a % b); // There is no case in which this doesn't hold\n\t\treturn a / b;\n\t}\n\n\t/**\n\t* @dev Subtracts two numbers, throws on overflow (i.e. if subtrahend is greater than minuend).\n\t*/\n\tfunction sub(uint256 a, uint256 b) internal pure returns (uint256) {\n\t\tassert(b <= a);\n\t\treturn a - b;\n\t}\n\n\t/**\n\t* @dev Adds two numbers, throws on overflow.\n\t*/\n\tfunction add(uint256 a, uint256 b) internal pure returns (uint256) {\n\t\tuint256 c = a + b;\n\t\tassert(c >= a);\n\t\treturn c;\n\t}\n}\n\ncontract ERC20Basic {\n\tfunction totalSupply() public view returns (uint256);\n\n\tfunction balanceOf(address who) public view returns (uint256);\n\n\tfunction transfer(address to, uint256 value) public returns (bool);\n\n\tevent Transfer(address indexed from, address indexed to, uint256 value);\n}\n\n/**\n * @title ERC20 interface\n * @dev see https://github.com/ethereum/EIPs/issues/20\n */\ncontract ERC20 is ERC20Basic {\n\tfunction allowance(address owner, address spender) public view returns (uint256);\n\n\tfunction transferFrom(address from, address to, uint256 value) public returns (bool);\n\n\tfunction approve(address spender, uint256 value) public returns (bool);\n\n\tevent Approval(address indexed owner, address indexed spender, uint256 value);\n}\n\n/**\n * @title Airdrop Controller\n * @dev Controlls ERC20 token airdrop\n * @notice Token Contract Must send enough tokens to this contract to be distributed before aidrop\n */\ncontract LrcAirdrop is Ownable {\n\tusing SafeMath for uint;\n\n\tERC20 public token;\n\n\n\n\tfunction airdrop(address _token,address[] _recipients, uint[] _amounts) public onlyOwner {\n\t\ttoken = ERC20(_token);\n\t\tfor (uint i = 0; i < _recipients.length; i++) {\n\n\t\t\trequire(token.transfer(_recipients[i], _amounts[i]));\n\n\t\t}\n\t}\n\n}\n",
  "sourcePath": "/product/PeloAirdrop/contracts/LrcAirdrop.sol",
  "compiler": {
    "name": "solc",
    "version": "0.4.23+commit.124ca40d.Emscripten.clang"
  },
  "schemaVersion": "2.0.0",
  "updatedAt": "2018-07-07T04:33:42.920Z"
}