{
  "contractName": "OwnedUpgradeabilityStorage",
  "abi": [
    {
      "constant": true,
      "inputs": [],
      "name": "version",
      "outputs": [
        {
          "name": "",
          "type": "string"
        }
      ],
      "payable": false,
      "stateMutability": "view",
      "type": "function"
    },
    {
      "constant": true,
      "inputs": [],
      "name": "implementation",
      "outputs": [
        {
          "name": "",
          "type": "address"
        }
      ],
      "payable": false,
      "stateMutability": "view",
      "type": "function"
    },
    {
      "constant": true,
      "inputs": [],
      "name": "upgradeabilityOwner",
      "outputs": [
        {
          "name": "",
          "type": "address"
        }
      ],
      "payable": false,
      "stateMutability": "view",
      "type": "function"
    }
  ],
  "bytecode": "0x608060405234801561001057600080fd5b50610231806100206000396000f3006080604052600436106100565763ffffffff7c010000000000000000000000000000000000000000000000000000000060003504166354fd4d50811461005b5780635c60da1b146100e55780636fde820214610123575b600080fd5b34801561006757600080fd5b50610070610138565b6040805160208082528351818301528351919283929083019185019080838360005b838110156100aa578181015183820152602001610092565b50505050905090810190601f1680156100d75780820380516001836020036101000a031916815260200191505b509250505060405180910390f35b3480156100f157600080fd5b506100fa6101cd565b6040805173ffffffffffffffffffffffffffffffffffffffff9092168252519081900360200190f35b34801561012f57600080fd5b506100fa6101e9565b60018054604080516020601f600260001961010087891615020190951694909404938401819004810282018101909252828152606093909290918301828280156101c35780601f10610198576101008083540402835291602001916101c3565b820191906000526020600020905b8154815290600101906020018083116101a657829003601f168201915b5050505050905090565b60025473ffffffffffffffffffffffffffffffffffffffff1690565b60005473ffffffffffffffffffffffffffffffffffffffff16905600a165627a7a72305820a75ba3c240d75c2dc7484f9d48f6cb39f4ac18c5f3ae3724e23123789e072a6f0029",
  "source": "\npragma solidity 0.4.23;\n\nimport \"./EternalStorage.sol\";\nimport \"./UpgradeabilityStorage.sol\";\nimport \"./UpgradeabilityOwnerStorage.sol\";\n\n\ncontract OwnedUpgradeabilityStorage is UpgradeabilityOwnerStorage, UpgradeabilityStorage, EternalStorage {}\n",
  "sourcePath": "/product/PeloAirdrop/contracts/OwnedUpgradeabilityStorage.sol",
  "compiler": {
    "name": "solc",
    "version": "0.4.23+commit.124ca40d.Emscripten.clang"
  },
  "schemaVersion": "2.0.0",
  "updatedAt": "2018-07-07T04:33:42.923Z"
}