{
  "contractName": "Storage",
  "abi": [
    {
      "constant": true,
      "inputs": [],
      "name": "proxyOwner",
      "outputs": [
        {
          "name": "",
          "type": "address"
        }
      ],
      "payable": false,
      "stateMutability": "view",
      "type": "function"
    },
    {
      "constant": true,
      "inputs": [],
      "name": "version",
      "outputs": [
        {
          "name": "",
          "type": "string"
        }
      ],
      "payable": false,
      "stateMutability": "view",
      "type": "function"
    },
    {
      "constant": false,
      "inputs": [
        {
          "name": "version",
          "type": "string"
        },
        {
          "name": "implementation",
          "type": "address"
        }
      ],
      "name": "upgradeTo",
      "outputs": [],
      "payable": false,
      "stateMutability": "nonpayable",
      "type": "function"
    },
    {
      "constant": true,
      "inputs": [],
      "name": "implementation",
      "outputs": [
        {
          "name": "",
          "type": "address"
        }
      ],
      "payable": false,
      "stateMutability": "view",
      "type": "function"
    },
    {
      "constant": true,
      "inputs": [],
      "name": "upgradeabilityOwner",
      "outputs": [
        {
          "name": "",
          "type": "address"
        }
      ],
      "payable": false,
      "stateMutability": "view",
      "type": "function"
    },
    {
      "constant": false,
      "inputs": [
        {
          "name": "version",
          "type": "string"
        },
        {
          "name": "implementation",
          "type": "address"
        },
        {
          "name": "data",
          "type": "bytes"
        }
      ],
      "name": "upgradeToAndCall",
      "outputs": [],
      "payable": true,
      "stateMutability": "payable",
      "type": "function"
    },
    {
      "constant": false,
      "inputs": [
        {
          "name": "newOwner",
          "type": "address"
        }
      ],
      "name": "transferProxyOwnership",
      "outputs": [],
      "payable": false,
      "stateMutability": "nonpayable",
      "type": "function"
    },
    {
      "inputs": [],
      "payable": false,
      "stateMutability": "nonpayable",
      "type": "constructor"
    },
    {
      "payable": true,
      "stateMutability": "payable",
      "type": "fallback"
    },
    {
      "anonymous": false,
      "inputs": [
        {
          "indexed": false,
          "name": "previousOwner",
          "type": "address"
        },
        {
          "indexed": false,
          "name": "newOwner",
          "type": "address"
        }
      ],
      "name": "ProxyOwnershipTransferred",
      "type": "event"
    },
    {
      "anonymous": false,
      "inputs": [
        {
          "indexed": false,
          "name": "version",
          "type": "string"
        },
        {
          "indexed": true,
          "name": "implementation",
          "type": "address"
        }
      ],
      "name": "Upgraded",
      "type": "event"
    }
  ],
  "bytecode": "0x608060405234801561001057600080fd5b5061002333640100000000610028810204565b61004a565b60008054600160a060020a031916600160a060020a0392909216919091179055565b610731806100596000396000f3006080604052600436106100825763ffffffff7c0100000000000000000000000000000000000000000000000000000000600035041663025313a281146100ff57806354fd4d50146101305780635a8b1a9f146101ba5780635c60da1b146102205780636fde820214610235578063958a41dd1461024a578063f1739cae146102e3575b6000606061008e610304565b9150600160a060020a03821615156100a557600080fd5b6000368080601f0160208091040260200160405190810160405280939291908181526020018383808284378201915050505050509050600080825160208401855af43d604051816000823e8280156100fb578282f35b8282fd5b34801561010b57600080fd5b50610114610314565b60408051600160a060020a039092168252519081900360200190f35b34801561013c57600080fd5b50610145610323565b6040805160208082528351818301528351919283929083019185019080838360005b8381101561017f578181015183820152602001610167565b50505050905090810190601f1680156101ac5780820380516001836020036101000a031916815260200191505b509250505060405180910390f35b3480156101c657600080fd5b506040805160206004803580820135601f810184900484028501840190955284845261021e94369492936024939284019190819084018382808284375094975050509235600160a060020a031693506103b892505050565b005b34801561022c57600080fd5b50610114610304565b34801561024157600080fd5b506101146103ed565b6040805160206004803580820135601f810184900484028501840190955284845261021e94369492936024939284019190819084018382808284375050604080516020601f818a01358b0180359182018390048302840183018552818452989b600160a060020a038b35169b909a9099940197509195509182019350915081908401838280828437509497506103fc9650505050505050565b3480156102ef57600080fd5b5061021e600160a060020a03600435166104b5565b600254600160a060020a03165b90565b600061031e6103ed565b905090565b60018054604080516020601f600260001961010087891615020190951694909404938401819004810282018101909252828152606093909290918301828280156103ae5780601f10610383576101008083540402835291602001916103ae565b820191906000526020600020905b81548152906001019060200180831161039157829003601f168201915b5050505050905090565b6103c0610314565b600160a060020a031633600160a060020a03161415156103df57600080fd5b6103e98282610548565b5050565b600054600160a060020a031690565b610404610314565b600160a060020a031633600160a060020a031614151561042357600080fd5b61042d83836103b8565b30600160a060020a0316348260405180828051906020019080838360005b8381101561046357818101518382015260200161044b565b50505050905090810190601f1680156104905780820380516001836020036101000a031916815260200191505b5091505060006040518083038185875af19250505015156104b057600080fd5b505050565b6104bd610314565b600160a060020a031633600160a060020a03161415156104dc57600080fd5b600160a060020a03811615156104f157600080fd5b7f5a3e66efaa1e445ebd894728a69d6959842ea1e97bd79b892797106e270efcd961051a610314565b60408051600160a060020a03928316815291841660208301528051918290030190a16105458161063e565b50565b600254600160a060020a038281169116141561056357600080fd5b815161057690600190602085019061066d565b506002805473ffffffffffffffffffffffffffffffffffffffff1916600160a060020a03831690811790915560408051602080825285518183015285517f8e05e0e35ff592971ca8b477d4285a33a61ded208d644042667b78693a472f5e938793928392918301919085019080838360005b838110156106005781810151838201526020016105e8565b50505050905090810190601f16801561062d5780820380516001836020036101000a031916815260200191505b509250505060405180910390a25050565b6000805473ffffffffffffffffffffffffffffffffffffffff1916600160a060020a0392909216919091179055565b828054600181600116156101000203166002900490600052602060002090601f016020900481019282601f106106ae57805160ff19168380011785556106db565b828001600101855582156106db579182015b828111156106db5782518255916020019190600101906106c0565b506106e79291506106eb565b5090565b61031191905b808211156106e757600081556001016106f15600a165627a7a72305820ec1ec137b20dd08de0083b3eeff56d7dc4aeb9f3859058e4adc8b5decda0d8d30029",
  "source": "\npragma solidity 0.4.23;\n\nimport \"./EternalStorage.sol\";\nimport \"./OwnedUpgradeabilityProxy.sol\";\n\ncontract Storage is OwnedUpgradeabilityProxy, EternalStorage {\n\n\n\n    constructor() public OwnedUpgradeabilityProxy() {}\n\n\n}\n",
  "sourcePath": "/product/PeloAirdrop/contracts/Storage.sol",
  "compiler": {
    "name": "solc",
    "version": "0.4.23+commit.124ca40d.Emscripten.clang"
  },
  "schemaVersion": "2.0.0",
  "updatedAt": "2018-07-07T04:33:42.924Z"
}