{
  "contractName": "UpgradeabilityOwnerStorage",
  "abi": [
    {
      "constant": true,
      "inputs": [],
      "name": "upgradeabilityOwner",
      "outputs": [
        {
          "name": "",
          "type": "address"
        }
      ],
      "payable": false,
      "stateMutability": "view",
      "type": "function"
    }
  ],
  "bytecode": "0x608060405234801561001057600080fd5b5060c68061001f6000396000f300608060405260043610603e5763ffffffff7c01000000000000000000000000000000000000000000000000000000006000350416636fde820281146043575b600080fd5b348015604e57600080fd5b506055607e565b6040805173ffffffffffffffffffffffffffffffffffffffff9092168252519081900360200190f35b60005473ffffffffffffffffffffffffffffffffffffffff16905600a165627a7a72305820143797ae12146c2a33f963638e841b38793e91f3d433d264fe44ec1d3b7cde4b0029",
  "source": "pragma solidity 0.4.23;\n\ncontract UpgradeabilityOwnerStorage {\n  // Owner of the contract\n    address private _upgradeabilityOwner;\n\n    /**\n    * @dev Tells the address of the owner\n    * @return the address of the owner\n    */\n    function upgradeabilityOwner() public view returns (address) {\n        return _upgradeabilityOwner;\n    }\n\n    /**\n    * @dev Sets the address of the owner\n    */\n    function setUpgradeabilityOwner(address newUpgradeabilityOwner) internal {\n        _upgradeabilityOwner = newUpgradeabilityOwner;\n    }\n\n}\n",
  "sourcePath": "/product/PeloAirdrop/contracts/UpgradeabilityOwnerStorage.sol",
  "compiler": {
    "name": "solc",
    "version": "0.4.23+commit.124ca40d.Emscripten.clang"
  },
  "schemaVersion": "2.0.0",
  "updatedAt": "2018-07-07T04:33:42.924Z"
}