{
  "contractName": "UpgradeabilityProxy",
  "abi": [
    {
      "constant": true,
      "inputs": [],
      "name": "version",
      "outputs": [
        {
          "name": "",
          "type": "string"
        }
      ],
      "payable": false,
      "stateMutability": "view",
      "type": "function"
    },
    {
      "constant": true,
      "inputs": [],
      "name": "implementation",
      "outputs": [
        {
          "name": "",
          "type": "address"
        }
      ],
      "payable": false,
      "stateMutability": "view",
      "type": "function"
    },
    {
      "payable": true,
      "stateMutability": "payable",
      "type": "fallback"
    },
    {
      "anonymous": false,
      "inputs": [
        {
          "indexed": false,
          "name": "version",
          "type": "string"
        },
        {
          "indexed": true,
          "name": "implementation",
          "type": "address"
        }
      ],
      "name": "Upgraded",
      "type": "event"
    }
  ],
  "bytecode": "0x608060405234801561001057600080fd5b5061027b806100206000396000f30060806040526004361061004b5763ffffffff7c010000000000000000000000000000000000000000000000000000000060003504166354fd4d5081146100d55780635c60da1b1461015f575b6000606061005761019d565b915073ffffffffffffffffffffffffffffffffffffffff8216151561007b57600080fd5b6000368080601f0160208091040260200160405190810160405280939291908181526020018383808284378201915050505050509050600080825160208401855af43d604051816000823e8280156100d1578282f35b8282fd5b3480156100e157600080fd5b506100ea6101b9565b6040805160208082528351818301528351919283929083019185019080838360005b8381101561012457818101518382015260200161010c565b50505050905090810190601f1680156101515780820380516001836020036101000a031916815260200191505b509250505060405180910390f35b34801561016b57600080fd5b5061017461019d565b6040805173ffffffffffffffffffffffffffffffffffffffff9092168252519081900360200190f35b60015473ffffffffffffffffffffffffffffffffffffffff1690565b60008054604080516020601f60026000196101006001881615020190951694909404938401819004810282018101909252828152606093909290918301828280156102455780601f1061021a57610100808354040283529160200191610245565b820191906000526020600020905b81548152906001019060200180831161022857829003601f168201915b50505050509050905600a165627a7a7230582078cb4629d83886d82e4df7326ed3dec49868b840a1b8d5f03fc2a6bc0a2a6c4e0029",
  "source": "pragma solidity 0.4.23;\n\nimport \"./Proxy.sol\";\nimport \"./UpgradeabilityStorage.sol\";\n\ncontract UpgradeabilityProxy is Proxy, UpgradeabilityStorage {\n  /**\n  * @dev This event will be emitted every time the implementation gets upgraded\n  * @param version representing the version name of the upgraded implementation\n  * @param implementation representing the address of the upgraded implementation\n  */\n    event Upgraded(string version, address indexed implementation);\n\n    /**\n    * @dev Upgrades the implementation address\n    * @param version representing the version name of the new implementation to be set\n    * @param implementation representing the address of the new implementation to be set\n    */\n    function _upgradeTo(string version, address implementation) internal {\n        require(_implementation != implementation);\n        _version = version;\n        _implementation = implementation;\n        emit Upgraded(version, implementation);\n    }\n}\n",
  "sourcePath": "/product/PeloAirdrop/contracts/UpgradeabilityProxy.sol",
  "compiler": {
    "name": "solc",
    "version": "0.4.23+commit.124ca40d.Emscripten.clang"
  },
  "schemaVersion": "2.0.0",
  "updatedAt": "2018-07-07T04:33:42.924Z"
}