{
  "contractName": "UpgradeabilityStorage",
  "abi": [
    {
      "constant": true,
      "inputs": [],
      "name": "version",
      "outputs": [
        {
          "name": "",
          "type": "string"
        }
      ],
      "payable": false,
      "stateMutability": "view",
      "type": "function"
    },
    {
      "constant": true,
      "inputs": [],
      "name": "implementation",
      "outputs": [
        {
          "name": "",
          "type": "address"
        }
      ],
      "payable": false,
      "stateMutability": "view",
      "type": "function"
    }
  ],
  "bytecode": "0x608060405234801561001057600080fd5b506101f6806100206000396000f30060806040526004361061004b5763ffffffff7c010000000000000000000000000000000000000000000000000000000060003504166354fd4d5081146100505780635c60da1b146100da575b600080fd5b34801561005c57600080fd5b50610065610118565b6040805160208082528351818301528351919283929083019185019080838360005b8381101561009f578181015183820152602001610087565b50505050905090810190601f1680156100cc5780820380516001836020036101000a031916815260200191505b509250505060405180910390f35b3480156100e657600080fd5b506100ef6101ae565b6040805173ffffffffffffffffffffffffffffffffffffffff9092168252519081900360200190f35b60008054604080516020601f60026000196101006001881615020190951694909404938401819004810282018101909252828152606093909290918301828280156101a45780601f10610179576101008083540402835291602001916101a4565b820191906000526020600020905b81548152906001019060200180831161018757829003601f168201915b5050505050905090565b60015473ffffffffffffffffffffffffffffffffffffffff16905600a165627a7a7230582085f6d0744d0cb3aeff91a32f882220956111aeeebfd56ec4a44958b025146efb0029",
  "source": "pragma solidity 0.4.23;\n\ncontract UpgradeabilityStorage {\n  // Version name of the current implementation\n    string internal _version;\n\n    // Address of the current implementation\n    address internal _implementation;\n\n    /**\n    * @dev Tells the version name of the current implementation\n    * @return string representing the name of the current version\n    */\n    function version() public view returns (string) {\n        return _version;\n    }\n\n    /**\n    * @dev Tells the address of the current implementation\n    * @return address of the current implementation\n    */\n    function implementation() public view returns (address) {\n        return _implementation;\n    }\n}\n",
  "sourcePath": "/product/PeloAirdrop/contracts/UpgradeabilityStorage.sol",
  "compiler": {
    "name": "solc",
    "version": "0.4.23+commit.124ca40d.Emscripten.clang"
  },
  "schemaVersion": "2.0.0",
  "updatedAt": "2018-07-07T04:33:42.924Z"
}